{
  "contractName": "TestContract",
  "abi": [
    {
      "inputs": [
        {
          "internalType": "uint256",
          "name": "_fundingGoal",
          "type": "uint256"
        }
      ],
      "payable": false,
      "stateMutability": "nonpayable",
      "type": "constructor"
    },
    {
      "constant": true,
      "inputs": [],
      "name": "fundingGoal",
      "outputs": [
        {
          "internalType": "uint256",
          "name": "",
          "type": "uint256"
        }
      ],
      "payable": false,
      "stateMutability": "view",
      "type": "function"
    },
    {
      "constant": true,
      "inputs": [],
      "name": "getFundingGoal",
      "outputs": [
        {
          "internalType": "uint256",
          "name": "",
          "type": "uint256"
        }
      ],
      "payable": false,
      "stateMutability": "view",
      "type": "function"
    }
  ],
  "bytecode": "0x608060405234801561001057600080fd5b5060405161019938038061019983398181016040526100329190810190610054565b806000819055505061009e565b60008151905061004e81610087565b92915050565b60006020828403121561006657600080fd5b60006100748482850161003f565b91505092915050565b6000819050919050565b6100908161007d565b811461009b57600080fd5b50565b60ed806100ac6000396000f3fe6080604052348015600f57600080fd5b506004361060325760003560e01c80637a3a0e84146037578063b85090f3146051575b600080fd5b603d606b565b604051604891906087565b60405180910390f35b60576071565b604051606291906087565b60405180910390f35b60005481565b60008054905090565b60818160a0565b82525050565b6000602082019050609a6000830184607a565b92915050565b600081905091905056fea365627a7a723158209eb8f006773d384cdc1be1ff20392cb0bf90a01a2fefa553e2032444180d8a426c6578706572696d656e74616cf564736f6c63430005100040",
  "source": "pragma solidity >=0.4.22 <0.7.0;\r\n\r\npragma experimental ABIEncoderV2;\r\n\r\ncontract TestContract {\r\n\r\n     uint public fundingGoal;\r\n\r\n    constructor(uint _fundingGoal) public {\r\n        fundingGoal = _fundingGoal;\r\n    }\r\n\r\n\r\n    function getFundingGoal() public view returns (uint) {\r\n        return fundingGoal;\r\n    }\r\n\r\n}\r\n",
  "sourcePath": "C:/Users/Bogdan/Desktop/blockchain/eth/contracts/TestContract.sol",
  "compiler": {
    "name": "solc",
    "version": "0.5.16+commit.9c3226ce.Emscripten.clang"
  },
  "schemaVersion": "3.3.2",
  "updatedAt": "2020-12-21T17:51:44.118Z",
  "networkType": "ethereum",
  "devdoc": {
    "methods": {}
  },
  "userdoc": {
    "methods": {}
  }
}